{
  "contractName": "HashStorage",
  "abi": [
    {
      "inputs": [],
      "payable": false,
      "stateMutability": "nonpayable",
      "type": "constructor"
    },
    {
      "anonymous": false,
      "inputs": [
        {
          "indexed": false,
          "internalType": "string",
          "name": "ipfsHash",
          "type": "string"
        },
        {
          "indexed": false,
          "internalType": "string",
          "name": "fileHash",
          "type": "string"
        },
        {
          "indexed": false,
          "internalType": "uint256",
          "name": "dateAdded",
          "type": "uint256"
        }
      ],
      "name": "HashAdded",
      "type": "event"
    },
    {
      "anonymous": false,
      "inputs": [
        {
          "indexed": true,
          "internalType": "address",
          "name": "previousOwner",
          "type": "address"
        },
        {
          "indexed": true,
          "internalType": "address",
          "name": "newOwner",
          "type": "address"
        }
      ],
      "name": "OwnershipTransferred",
      "type": "event"
    },
    {
      "constant": true,
      "inputs": [],
      "name": "isOwner",
      "outputs": [
        {
          "internalType": "bool",
          "name": "",
          "type": "bool"
        }
      ],
      "payable": false,
      "stateMutability": "view",
      "type": "function"
    },
    {
      "constant": true,
      "inputs": [],
      "name": "owner",
      "outputs": [
        {
          "internalType": "address",
          "name": "",
          "type": "address"
        }
      ],
      "payable": false,
      "stateMutability": "view",
      "type": "function"
    },
    {
      "constant": false,
      "inputs": [
        {
          "internalType": "address",
          "name": "newOwner",
          "type": "address"
        }
      ],
      "name": "transferOwnership",
      "outputs": [],
      "payable": false,
      "stateMutability": "nonpayable",
      "type": "function"
    },
    {
      "constant": false,
      "inputs": [
        {
          "internalType": "string",
          "name": "_ipfsHash",
          "type": "string"
        },
        {
          "internalType": "string",
          "name": "_fileHash",
          "type": "string"
        },
        {
          "internalType": "string",
          "name": "_fileName",
          "type": "string"
        },
        {
          "internalType": "string",
          "name": "_fileType",
          "type": "string"
        },
        {
          "internalType": "uint256",
          "name": "_dateAdded",
          "type": "uint256"
        }
      ],
      "name": "add",
      "outputs": [],
      "payable": false,
      "stateMutability": "nonpayable",
      "type": "function"
    },
    {
      "constant": true,
      "inputs": [
        {
          "internalType": "string",
          "name": "_fileHash",
          "type": "string"
        }
      ],
      "name": "get",
      "outputs": [
        {
          "internalType": "string",
          "name": "",
          "type": "string"
        },
        {
          "internalType": "string",
          "name": "",
          "type": "string"
        },
        {
          "internalType": "string",
          "name": "",
          "type": "string"
        },
        {
          "internalType": "string",
          "name": "",
          "type": "string"
        },
        {
          "internalType": "uint256",
          "name": "",
          "type": "uint256"
        },
        {
          "internalType": "bool",
          "name": "",
          "type": "bool"
        }
      ],
      "payable": false,
      "stateMutability": "view",
      "type": "function"
    }
  ],
  "bytecode": "0x608060405234801561001057600080fd5b50600080546001600160a01b031990811633908117909116179055610e6c8061003a6000396000f3fe608060405234801561001057600080fd5b50600436106100575760003560e01c80632ee0015e1461005c578063693ec85e146102935780638da5cb5b146104f35780638f32d59b14610517578063f2fde38b14610533575b600080fd5b610291600480360360a081101561007257600080fd5b810190602081018135600160201b81111561008c57600080fd5b82018360208201111561009e57600080fd5b803590602001918460018302840111600160201b831117156100bf57600080fd5b91908080601f0160208091040260200160405190810160405280939291908181526020018383808284376000920191909152509295949360208101935035915050600160201b81111561011157600080fd5b82018360208201111561012357600080fd5b803590602001918460018302840111600160201b8311171561014457600080fd5b91908080601f0160208091040260200160405190810160405280939291908181526020018383808284376000920191909152509295949360208101935035915050600160201b81111561019657600080fd5b8201836020820111156101a857600080fd5b803590602001918460018302840111600160201b831117156101c957600080fd5b91908080601f0160208091040260200160405190810160405280939291908181526020018383808284376000920191909152509295949360208101935035915050600160201b81111561021b57600080fd5b82018360208201111561022d57600080fd5b803590602001918460018302840111600160201b8311171561024e57600080fd5b91908080601f0160208091040260200160405190810160405280939291908181526020018383808284376000920191909152509295505091359250610559915050565b005b610337600480360360208110156102a957600080fd5b810190602081018135600160201b8111156102c357600080fd5b8201836020820111156102d557600080fd5b803590602001918460018302840111600160201b831117156102f657600080fd5b91908080601f016020809104026020016040519081016040528093929190818152602001838380828437600092019190915250929550610861945050505050565b60405180806020018060200180602001806020018781526020018615151515815260200185810385528b818151815260200191508051906020019080838360005b83811015610390578181015183820152602001610378565b50505050905090810190601f1680156103bd5780820380516001836020036101000a031916815260200191505b5085810384528a5181528a516020918201918c019080838360005b838110156103f05781810151838201526020016103d8565b50505050905090810190601f16801561041d5780820380516001836020036101000a031916815260200191505b5085810383528951815289516020918201918b019080838360005b83811015610450578181015183820152602001610438565b50505050905090810190601f16801561047d5780820380516001836020036101000a031916815260200191505b5085810382528851815288516020918201918a019080838360005b838110156104b0578181015183820152602001610498565b50505050905090810190601f1680156104dd5780820380516001836020036101000a031916815260200191505b509a505050505050505050505060405180910390f35b6104fb610c2e565b604080516001600160a01b039092168252519081900360200190f35b61051f610c3d565b604080519115158252519081900360200190f35b6102916004803603602081101561054957600080fd5b50356001600160a01b0316610c4f565b610561610c3d565b6105a2576040805162461bcd60e51b815260206004820152600d60248201526c1058d8d95cdcc811195b9a5959609a1b604482015290519081900360640190fd5b6002846040518082805190602001908083835b602083106105d45780518252601f1990920191602091820191016105b5565b51815160209384036101000a600019018019909216911617905292019485525060405193849003019092206004015460ff1615915061064690505760405162461bcd60e51b815260040180806020018281038252602a815260200180610e0e602a913960400191505060405180910390fd5b61064e610d44565b6040518060a00160405280878152602001858152602001848152602001838152602001600115158152509050806002866040518082805190602001908083835b602083106106ad5780518252601f19909201916020918201910161068e565b51815160209384036101000a60001901801990921691161790529201948552506040519384900381019093208451805191946106ee94508593500190610d75565b5060208281015180516107079260018501920190610d75565b5060408201518051610723916002840191602090910190610d75565b506060820151816003015560808201518160040160006101000a81548160ff0219169083151502179055509050507f729750c7ab8f3db16cba8ef9847bce3e360a12328123880f6f17827cd1f2778b868684604051808060200180602001848152602001838103835286818151815260200191508051906020019080838360005b838110156107bc5781810151838201526020016107a4565b50505050905090810190601f1680156107e95780820380516001836020036101000a031916815260200191505b50838103825285518152855160209182019187019080838360005b8381101561081c578181015183820152602001610804565b50505050905090810190601f1680156108495780820380516001836020036101000a031916815260200191505b509550505050505060405180910390a1505050505050565b606080606080600080866002886040518082805190602001908083835b6020831061089d5780518252601f19909201916020918201910161087e565b51815160209384036101000a600019018019909216911617905292019485525060405193849003810184208c519094600294508d9350918291908401908083835b602083106108fd5780518252601f1990920191602091820191016108de565b6001836020036101000a038019825116818451168082178552505050505050905001915050908152602001604051809103902060010160028a6040518082805190602001908083835b602083106109655780518252601f199092019160209182019101610946565b6001836020036101000a038019825116818451168082178552505050505050905001915050908152602001604051809103902060020160028b6040518082805190602001908083835b602083106109cd5780518252601f1990920191602091820191016109ae565b6001836020036101000a03801982511681845116808217855250505050505090500191505090815260200160405180910390206003015460028c6040518082805190602001908083835b60208310610a365780518252601f199092019160209182019101610a17565b518151600019602094850361010090810a82019283169219939093169190911790925294909201968752604080519788900382018820600401548c54601f600260018316159098029095011695909504928301829004820288018201905281875260ff909316959450899350918401905082828015610af65780601f10610acb57610100808354040283529160200191610af6565b820191906000526020600020905b815481529060010190602001808311610ad957829003601f168201915b5050875460408051602060026001851615610100026000190190941693909304601f8101849004840282018401909252818152959a5089945092508401905082828015610b845780601f10610b5957610100808354040283529160200191610b84565b820191906000526020600020905b815481529060010190602001808311610b6757829003601f168201915b5050865460408051602060026001851615610100026000190190941693909304601f810184900484028201840190925281815295995088945092508401905082828015610c125780601f10610be757610100808354040283529160200191610c12565b820191906000526020600020905b815481529060010190602001808311610bf557829003601f168201915b5050505050925095509550955095509550955091939550919395565b6000546001600160a01b031681565b6000546001600160a01b031633145b90565b610c57610c3d565b610c98576040805162461bcd60e51b815260206004820152600d60248201526c1058d8d95cdcc811195b9a5959609a1b604482015290519081900360640190fd5b6001600160a01b038116610ce9576040805162461bcd60e51b8152602060048201526013602482015272496e76616c6964206e6577206164647265737360681b604482015290519081900360640190fd5b600080546040516001600160a01b03808516939216917f8be0079c531659141344cd1fd0a4f28419497f9722a3daafe3b4186f6b6457e091a3600080546001600160a01b0319166001600160a01b0392909216919091179055565b6040518060a00160405280606081526020016060815260200160608152602001600081526020016000151581525090565b828054600181600116156101000203166002900490600052602060002090601f016020900481019282601f10610db657805160ff1916838001178555610de3565b82800160010185558215610de3579182015b82811115610de3578251825591602001919060010190610dc8565b50610def929150610df3565b5090565b610c4c91905b80821115610def5760008155600101610df956fe5b45315d2054686973206861736820616c72656164792065786973747320696e20636f6e74726163742ea265627a7a723158201098bf832264376a31bf42f5f6c610fb42a8566297b5f383c2190fefe2cf51da64736f6c63430005100032",
  "source": "// SPDX-License-Identifier: MIT\r\npragma solidity >=0.4.22 <0.9.0;\r\n\r\nimport \"./Ownable.sol\";\r\n\r\ncontract HashStorage is Ownable{\r\n    mapping (string => DocInfo) collection;\r\n    struct DocInfo {\r\n        string ipfsHash;\r\n        string fileName;\r\n        string fileType;\r\n        uint dateAdded;\r\n        bool exist; \r\n    }\r\n\r\n    event HashAdded(string ipfsHash, string fileHash, uint dateAdded);\r\n\r\n    constructor () public{\r\n        owner = msg.sender;\r\n    }\r\n\r\n    function add(string memory _ipfsHash, string memory _fileHash, string memory _fileName, string memory _fileType, uint _dateAdded) public onlyOwner {\r\n        require(collection[_fileHash].exist == false, \"[E1] This hash already exists in contract.\");\r\n        DocInfo memory docInfo = DocInfo(_ipfsHash, _fileName, _fileType, _dateAdded, true);\r\n        collection[_fileHash] = docInfo;\r\n        \r\n        emit HashAdded(_ipfsHash, _fileHash, _dateAdded);\r\n    }\r\n\r\n    function get(string memory _fileHash) public view returns (string memory, string memory, string memory, string memory, uint, bool) {\r\n        return (\r\n            _fileHash, \r\n            collection[_fileHash].ipfsHash,\r\n            collection[_fileHash].fileName,\r\n            collection[_fileHash].fileType,\r\n            collection[_fileHash].dateAdded,\r\n            collection[_fileHash].exist\r\n        );\r\n    }\r\n}",
  "sourcePath": "D:\\College\\Semester 6\\BC\\Project\\DSM\\contracts\\HashStorage.sol",
  "compiler": {
    "name": "solc",
    "version": "0.5.16+commit.9c3226ce.Emscripten.clang"
  },
  "schemaVersion": "3.4.13",
  "updatedAt": "2023-05-01T16:06:50.027Z",
  "networkType": "ethereum",
  "devdoc": {
    "methods": {}
  },
  "userdoc": {
    "methods": {}
  }
}