{
  "contractName": "SimpleStorage",
  "abi": [
    {
      "constant": true,
      "inputs": [],
      "name": "read",
      "outputs": [
        {
          "internalType": "uint256",
          "name": "",
          "type": "uint256"
        }
      ],
      "payable": false,
      "stateMutability": "view",
      "type": "function"
    },
    {
      "constant": false,
      "inputs": [
        {
          "internalType": "uint256",
          "name": "newValue",
          "type": "uint256"
        }
      ],
      "name": "write",
      "outputs": [],
      "payable": false,
      "stateMutability": "nonpayable",
      "type": "function"
    }
  ],
  "bytecode": "0x6080604052348015600f57600080fd5b5060ab8061001e6000396000f3fe6080604052348015600f57600080fd5b506004361060325760003560e01c80632f048afa14603757806357de26a4146053575b600080fd5b605160048036036020811015604b57600080fd5b5035606b565b005b60596070565b60408051918252519081900360200190f35b600055565b6000549056fea265627a7a72315820afd8e27eda4cd15ce1d8652fcfb87ab8b2c011b60e7ecfdd291094556bf5cbde64736f6c63430005100032",
  "source": "// SPDX-License-Identifier: MIT\r\npragma solidity >=0.4.22 <0.9.0;\r\n\r\ncontract SimpleStorage {\r\n  uint256 value;\r\n\r\n  function read() public view returns (uint256) {\r\n    return value;\r\n  }\r\n\r\n  function write(uint256 newValue) public {\r\n    value = newValue;\r\n  }\r\n}\r\n",
  "sourcePath": "C:\\Users\\kavin\\OneDrive\\Desktop\\College stuff\\sem 6\\BC\\DSM\\contracts\\SimpleStorage.sol",
  "compiler": {
    "name": "solc",
    "version": "0.5.16+commit.9c3226ce.Emscripten.clang"
  },
  "schemaVersion": "3.4.13",
  "updatedAt": "2023-04-27T18:15:20.337Z",
  "networkType": "ethereum",
  "devdoc": {
    "methods": {}
  },
  "userdoc": {
    "methods": {}
  }
}